:020000007B285B
:1000060080308312C000803025064002031D0D2873
:100016002408093C03181428A401A501A60A0319FB
:10002600A70A80302706C00080304002031D1D2825
:1000360009302602031C2328FF30A600FF30A70044
:100046002408C0002508C100C00DC10D401040089D
:100056000E3E840000088C00840A00088D002608E5
:10006600C0002708C100C00DC10D401040080E3E5B
:1000760084000008C000840A0008C1004008A200ED
:100086004108A30040088600851005150330CC0002
:100096009730CD00CD0B4D28CC0B4D28000000002D
:1000A60005110C08860085140330CC009730CD006E
:1000B600CD0B5B28CC0B5B280000000085100800E8
:0C00C600831229088A0028088200080024
:1000D20063208A110A128000840AA80A0319A90A55
:0800E200C003031D692808009A
:0C00EA000320051C79287A2875280800DE
:1000F60083128C018D01C0308E008F01F930900083
:100106009101A43092009301B0309400950199308A
:100116009600970192309800990182309A009B01CF
:10012600F8309C009D0180309E009F019030A00019
:10013600A101A201A301A401A501A601A701013005
:100146008316850086010E088C000F088D000E08A8
:10015600A2000F08A30003200518D12875208312DA
:10016600A40A0319A50A80302506C0008030400283
:10017600031DBF2805302402031CC2288515260846
:10018600C0002708C100C00DC10D401040080E3E3A
:1001960084000008A200840A0008A300AE28D22822
:02400E00FA3F77
:00000001FF
