:020000001628C0
:0E0006008312031335088A00340882000800B4
:1000140003208A110A128000840AB40A0319B50A5B
:08002400F003031D0A28080087
:10002C00803083120313A000A1014030A200A30171
:10003C002030A400A5011030A600A7010830A800AC
:10004C00A901AA01AB01BF30AC00AD01DF30AE009D
:10005C00AF01BF30B000B101B201B301831686010C
:10006C0087010230FB008630FC009930FD00FD0B4F
:10007C003D28FC0B3D28FB0B3D28F601F701003019
:10008C007702031D4B28053076020318B228831221
:10009C00B601B701B801B90100303902031D60285F
:1000AC0000303802031D602800303702031D602821
:1000BC00963036020318AE287608F4007708F5005F
:1000CC0000307502031D6C28053074020318962845
:1000DC007408F000F00D70107008203E84000009C8
:1000EC00860076087402F2007708031C013E750244
:1000FC00F3007208F000F00D701070082A3E8400B6
:10010C00000987000830FC00C930FD00FD0B8C286D
:10011C00FC0B8C2800000000F40A0319F50A662871
:10012C003608F0003708F1003808F2003908F300FF
:10013C00F00A0319F10A0319F20A0319F30A7008F9
:10014C00B6007108B7007208B8007308B9005228DD
:10015C00F60A0319F70A452883128601870108302D
:10016C00FB009D30FC000530FD00FD0BBB28FC0B9B
:0E017C00BB28FB0BBB28000000003728C4285E
:02400E004A2F37
:00000001FF
