:020000001628C0
:0E0006008312031323088A00220882000800D8
:1000140003208A110A128000840AA20A0319A30A7F
:08002400F003031D0A28080087
:10002C0083120313A001A10183168601FF30870000
:10003C008312860107185C2800302106031D28282E
:10004C0000302006031D3C2806141F30FB007130C5
:10005C00FC001E30FD00FD0B3128FC0B3128FB0B86
:10006C0031280000A00A0319A10A5C288614A001FB
:10007C00A1010430FB000C30FC003330FD00FD0B03
:10008C004528FC0B4528FB0B45280000000086107A
:10009C000430FB000C30FC003330FD00FD0B542809
:1000AC00FC0B5428FB0B54280000000020285D2872
:02400E004A2F37
:00000001FF
