:020000001628C0
:0E0006008312031335088A00340882000800B4
:1000140003208A110A128000840AB40A0319B50A5B
:08002400F003031D0A28080087
:10002C00C03083120313A000A101F930A200A30178
:10003C00A430A400A501B030A600A7019930A800F7
:10004C00A9019230AA00AB018230AC00AD01F830AE
:10005C00AE00AF018030B000B1019030B200B301FE
:10006C0083160514860180309F0087018801831256
:10007C0087018801F301F40180307406F0008030B0
:10008C007002031D4B280930730203186B28730888
:10009C00F0007408F100F00DF10D70107008203EA6
:1000AC0084000008860008141F30FB007130FC002F
:1000BC001E30FD00FD0B6028FC0B6028FB0B60283C
:0E00CC000000F30A0319F40A422840286C28A9
:02400E004A2F37
:00000001FF
