:020000000329D2
:0E000600213083120313FD00FD0B07280800B4
:100014000F3083120313FC004730FD00FD0B102842
:0A002400FC0B10280000000008008B
:06002E00000000000800C4
:1000340083120313B01B2028061121280615301B38
:100044002528861126288615B01A2A2806122B2858
:100054000616301A2F2886123028861626183428B9
:10006400061435280610861417208610B0193C286B
:1000740006113D2806153019412886114228861597
:10008400B018462806124728061630184B28861240
:100094004C28861626185028061451280610861453
:1000A40017208610261C58280A20592803200800E7
:0E00B4008312031328088A0027088200080020
:1000C2008312031326102F08B0001A2026140800EA
:1000D2008316031386100610861206128611061165
:1000E20083128610061006118611061286120A2045
:1000F2000A200A20061686168614172086100A2061
:100102008614172086100A208614172086100A20CB
:1001120086128614172086100A208614172086104D
:10012200061206158614172086100A200611861656
:1001320086141720861086128614172086100A202D
:1001420086141720861086168614172086100A2019
:100152008612861417208610061586150616861630
:0C0162008614172086100A2026140800BE
:10016E00C928803083120313AB00DC28C030AB00EB
:10017E00DC289430AB00DC28D430AB00DC28803097
:10018E00AB00DC28831203132B08013A0319B8289D
:10019E002B08023A0319BD282B08033A0319C0286D
:1001AE002B08043A0319C328C6282C03F0002B0889
:1001BE00F0077008AB007008B0001A202610AE01D0
:1001CE002E082D07840000080319F5282E082D0788
:1001DE0084000008AF006120AE0AE728261408004C
:1001EE005A208A110A128000840AA70A0319A80A43
:0801FE00F003031DF7280800BF
:10020600633083120313A0006830A1007530A2008A
:100216006B30A3007930A400A50169200130B0003D
:100226001A200C30B0001A200130AB000130AC00AF
:100236002030AD00B7200230AB000130AC002030DA
:10024600AD00B7201530FB004B30FC00BE30FD0082
:10025600FD0B2B29FC0B2B29FB0B2B290000A901DD
:10026600AA0180302A06F00080307002031D3D2965
:1002760004302902031854291C30B0001A20063015
:10028600FB001330FC00AD30FD00FD0B4829FC0BD4
:100296004829FB0B482900000000A90A0319AA0AED
:0602A6003429322955291C
:02400E004A2F37
:00000001FF
