:02000000602B73
:080006000000000000000800EA
:10000E00313083120313FD00FD0B0B28000000009E
:02001E000800D8
:10002000163083120313FC006C30FD00FD0B162804
:08003000FC0B1628000008007B
:1000380083160313C21B23288312871325288312D0
:1000480087178316421B2B28831207132D28831228
:1000580007178316C21A332883128712352883128A
:1000680087168316421A3B28831207123D288312EB
:10007800071683163A184328831208144528831252
:1000880008108814032088108316C2194E2883127A
:10009800871350288312871783164219562883120C
:1000A80007135828831207178316C2185E2883126D
:1000B80087126028831287168316421866288312CF
:1000C800071268288312071683163A186E288312B7
:1000D80008147028831208108814032088108316C7
:0C00E8003A1C7828102079280720080016
:0800F400FA1FF21300300800AE
:1000FC00831603133A104108C2001C2083163A14CD
:02010C000800E9
:10010E007B15FB1F91280130F300F201F101F00184
:08011E00FA0DF20CFF3008009D
:0E012600F201F101F001F801F30100300800D0
:10013400153083120313FD00FD0B9E280000000000
:020144000800B1
:10014600FB14FB1FAD28FF30F300F200F100F000B6
:08015600FA0DF20CFF30080065
:10015E00C128803083160313BD00D428C030BD00E3
:10016E00D4289430BD00D428D430BD00D42880309B
:10017E00BD00D428831603133D08013A0319B02895
:10018E003D08023A0319B5283D08033A0319B82869
:10019E003D08043A0319BB28BE283E03F0003D0873
:1001AE00F0077008BD007008C2001C2083163A10BC
:1001BE00C00140083F07840000080319EE284008DC
:1001CE003F0784000008C1007E20C00AE0283A14D0
:0201DE00080017
:1001E000A0017208031D05297108F2007008F100D2
:1001F000F001A0157208031D05297108F200F10134
:10020000A01120167208031913292008F302031DF8
:10021000031C17290310F21B1B29F00DF10DF20D21
:10022000F30B0B2917290130FC0093201E29023003
:0E023000FC0087201E290430FC007A20080004
:10023E0083160313881008100712871207138713EB
:10024E0083128810081087130713871207121020C5
:10025E0010201020871607168814032088101020EF
:10026E008814032088101020881403208810102072
:10027E000712881403208810102088140320881079
:10028E0087128717881403208810102087130716EB
:10029E008814032088100712881403208810102059
:1002AE008814032088100716881403208810102045
:1002BE00071288140320881087170717871607164A
:0E02CE00881403208810102083163A140800AC
:0E02DC00831203136F088A006E088200080068
:0602EA00FB15FF300800C7
:1002F000831203139F01C0309F0483161F179F179B
:100300003B08F000F00D7010F00D7010F00D701043
:10031000700883129F041F149A201F151F1D922915
:1003200000008E291F101E08F100F00183161E0820
:08033000F0040030F1040800A4
:1003380083160313BB01BC01831281015730831656
:1003480081008B018B160B1DAD29BB0A0319BC0A52
:100358000B1100303C06031DB3292D303B06031D4D
:08036800B629B729A7290800F6
:1003700083120313FB017308031D770803190F2A67
:1003800072087606FA007708F3077E30031CCC2942
:10039000F3020318122ACF29F302031C152A72084C
:1003A000F8007108FC007008FD00F817F61703103C
:1003B000F201F101F0011830A0007D1CE929740858
:1003C000F00775080318750FF10776080318760F04
:1003D000F207F20CF10CF00CF80CFC0CFD0C031005
:1003E000A00BDD29F21BF929F80DF00DF10DF20D2E
:1003F000F3037B1B701C0B2AF81F0B2AF00A03194E
:10040000F10A0319F20A031D0B2AF20CF10CF00C8D
:10041000F30A0319122AFA1FF2130030172A0130C7
:100420009320172A0230A320172A043087200000C7
:020430000800C2
:10043200831203137008F8007108F000F101F20151
:10044200F301FB01FC019630F300FA017008F100A0
:0C0452007808F000F801F201F02008002A
:10045E0083120313FA017308031D7A147708031D20
:10046E00FA147A0803197B2A033A0319462A7A18D2
:10047E00432AF61F792A772AF21F772A792A7208D9
:10048E008039FA00F21376088039F6137A060319CA
:10049E00542A7A080319772A792A770873020319DE
:1004AE005B2A031C6F2A732A760872020319622ACA
:1004BE00031C6F2A732A750871020319692A031C1B
:1004CE006F2A732A7408700203197B2A0318732A81
:1004DE00FA080319792A772AFA080319772A792A4A
:1004EE000314080003100800031403150800080085
:1004FE00013083160313C2001C2001308316BD0089
:10050E000330BE003E30BF00AF200230BD000630CB
:0A051E00BE004A30BF00AF20080005
:100528006E218A110A128000840AEE0A0319EF0A62
:08053800F003031D942A0800E2
:10054000831203137408003A031DBB2A7508003A8E
:10055000031DBB2A7608003A031DBB2A7708003A20
:10056000031DBB2AFF30F000FF30F1007F30F200A6
:10057000FF30F300562B83120313770803194A2B1D
:10058000730803194D2B720876068039FA00F217AA
:10059000F617A0017208F8007108FC007008FD0051
:1005A0007408FD027508031C750FFC027608031C15
:1005B000760FF802F801FC01FD01031CE62A031086
:1005C000F20CF10CF00CF80C0130A0007708F302EB
:1005D000031CF02A7E302007F3070318502BF52A5E
:1005E0007E302007F307031C532B1830FA07FD0D4C
:1005F000FC0DF80DF00DF10DF20DA00D7408F002D8
:100600007508031C750FF1027608031C760FF202C1
:10061000760DA004201C0E2B7D14192B7408F007F6
:1006200075080318750FF10776080318760AF207A4
:100630007D10FA031F307A05031DF72A7B1B7D1CF2
:10064000402B0310F00DF10DF20DA00D7408F00217
:100650007508031C750FF1027608031C760FF20271
:10066000760D20040139FD070318FC0A0319F80A66
:10067000031D402BF80CFC0CFD0CF30A0319502B46
:10068000FA1FF8137808F2007C08F1007D08F000EA
:100690000030552B01307521552B02309320552BFE
:0E06A0000430A320552B0830872000000800EE
:1006AE001F210130C2001C200C308316C2001C20FA
:0206BE00080032
:1006C000DC25F03083160313870006148614061504
:1006D0008615061607108710071187110811881153
:1006E000831286018701880157237F2280309F0073
:1006F00083160130BB00782119227008EA007108C6
:10070000EB007208EC007308ED000030F4000030DC
:10071000F5002030F6008130F700B8210030F400F9
:10072000C030F5007F30F6008830F700A022700856
:100730008316B6007108B7007208B8007308B900D4
:1007400083120618E02B0030F4000030F500203052
:10075000F6008030F70083163608F0003708F10005
:100760003808F2003908F3002F220130031C003052
:10077000F00070080319E02B0130A1000030A20046
:10078000572301308316BD000130BE002930BF0061
:10079000AF200230BD000130BE003530BF00AF20B9
:1007A0001030FB003930FC000D30FD00FD0BD62B66
:1007B000FC0BD62BFB0BD62B0000000057237F220F
:1007C00083128618202C0030F4000030F500203011
:1007D000F6008030F70083163608F0003708F10085
:1007E0003808F2003908F3002F220130031C0030D2
:1007F000F00070080319202C0130A3000030A40081
:10080000572301308316BD000130BE005D30BF00AC
:10081000AF200230BD000130BE003530BF00AF2038
:100820001030FB003930FC000D30FD00FD0B162CA4
:10083000FC0B162CFB0B162C0000000057237F220C
:1008400083120619602C0030F4000030F5002030CF
:10085000F6008030F70083163608F0003708F10004
:100860003808F2003908F3002F220130031C003051
:10087000F00070080319602C0130A5000030A600BC
:10088000572301308316BD000130BE005130BF0038
:10089000AF200230BD000130BE003530BF00AF20B8
:1008A0001030FB003930FC000D30FD00FD0B562CE4
:1008B000FC0B562CFB0B562C0000000057237F220C
:1008C00083128619A02C0030F4000030F50020308F
:1008D000F6008030F70083163608F0003708F10084
:1008E0003808F2003908F3002F220130031C0030D1
:1008F000F00070080319A02C0130A7000030A800F8
:10090000572301308316BD000130BE00A930BF005F
:10091000AF200230BD000130BE003530BF00AF2037
:100920001030FB003930FC000D30FD00FD0B962C23
:10093000FC0B962CFB0B962C0000000057237F220B
:100940008312061A752D9C219C219C218312081567
:1009500000302206031DAE2C01302106031DC92CD8
:10096000572301308316BD000130BE00A030BF0008
:10097000AF209C21572301308316BD000130BE00FB
:100980002930BF00AF20831207149C219C218312C1
:1009900007109C21003083122406031DD12C013046
:1009A0002306031DEC2C572301308316BD000130B4
:1009B000BE00A030BF00AF209C215723013083161A
:1009C000BD000130BE005D30BF00AF208312871430
:1009D0009C219C21831287109C21003083122606C3
:1009E000031DF42C01302506031D0F2D5723013064
:1009F0008316BD000130BE00A030BF00AF209C2197
:100A0000572301308316BD000130BE005130BF00B6
:100A1000AF20831207159C219C21831207119C2172
:100A2000003083122806031D172D01302706031DF1
:100A3000322D572301308316BD000130BE00A03097
:100A4000BF00AF209C21572301308316BD00013029
:100A5000BE00A930BF00AF20831287159C219C21C6
:100A6000831287119C21003083122206031D3A2D28
:100A700000302106031D602D00302406031D422D89
:100A800000302306031D602D00302606031D4A2D6D
:100A900000302506031D602D00302806031D522D51
:100AA00000302706031D602D8701A101A201A301CB
:100AB000A401A501A601A701A80108117F22752D97
:100AC00083128701A101A201A301A401A501A6012E
:100AD000A701A8017F229C219C218312081188155F
:0E0AE0009C219C219C2183128811782B762D5D
:100BB80021308400493083120313F0007C30EE00AA
:100BC8000530EF009422A03084001630F000C530C4
:0A0BD800EE000530EF009422080043
:100AF800003400340034003400340034003400344E
:100B080046344934523453345434203446344C3403
:080B18004F344F345234003415
:100B2000533445344C3445344334543445344434DC
:020B300000348F
:100B320045344E34543445345234203446344C34E3
:080B42004F344F3452340034EB
:0E0B4A004E3455344D34423445345234003468
:100B580054344834493452344434203446344C34C0
:080B68004F344F3452340034C5
:100B70005334453443344F344E34443420344634B3
:0A0B80004C344F344F34523400342B
:100B8A0047344F3449344E34473420345534503482
:020B9A00003425
:100B9C0046344F345534523454344834203446346B
:0A0BAC004C344F344F3452340034FF
:02400E00492F38
:00000001FF
