:020000007D2859
:10000600803083120313F000803039067002031D1E
:100016000E283808093C03181528B801B901BA0A90
:100026000319BB0A80303B06F00080307002031DC6
:100036001E2809303A02031C2428FF30BA00FF307C
:10004600BB003808F0003908F100F00DF10D701012
:100056007008223E84000008A000840A0008A1005F
:100066003A08F0003B08F100F00DF10D7010700831
:10007600223E84000008F000840A0008F10070089F
:10008600B6007108B70070088600851005150330A4
:10009600FC009730FD00FD0B4E28FC0B4E2800009F
:1000A600000005112008860085140330FC009730F7
:1000B600FD00FD0B5C28FC0B5C2800000000851091
:0200C600080030
:0E00C800831203133D088A003C0882000800E2
:1000D60064208A110A128000840ABC0A0319BD0A28
:0800E600F003031D6B28080064
:0C00EE000320051C7B287C2877280800D4
:1000FA0083120313A001A101C030A200A301F930A9
:10010A00A400A501A430A600A701B030A800A90147
:10011A009930AA00AB019230AC00AD018230AE003A
:10012A00AF01F830B000B1018030B200B3019030B5
:10013A00B400B501B601B701B801B901BA01BB01F2
:10014A0007309F000130831685008601831222083A
:10015A00A0002308A1002208B6002308B700032044
:10016A000518D828772083120313B80A0319B90A85
:10017A0080303906F00080307002031DC628053031
:10018A003802031CC92885153A08F0003B08F1001B
:10019A00F00DF10D70107008223E84000008B600C0
:0A01AA00840A0008B700B428D92821
:02400E006A2125
:00000001FF
