:02000000732C5F
:0E000600F201F101F001F801F30100300800F1
:100014007B15FB1F14280130F300F201F101F001FC
:08002400FA0DF20CFF30080098
:08002C00FA1FF2130030080076
:10003400FB14FB1F2428FF30F300F200F100F00052
:08004400FA0DF20CFF30080078
:10004C007C185C28FC182D287C197B282628A001FC
:10005C007208031D4D287108F2007008F100780831
:10006C00F000F801A0157208031D4D287108F2006C
:10007C007008F100F001A01120167208031D4D2824
:10008C007108F200F101A015720803196F282008FD
:10009C00F302031D031C73280310F21B5C28F80DDC
:1000AC00F00DF10DF20DF30B532873287B1B701C14
:1000BC007728F81F7728F00A0319F10A0319F20AB6
:1000CC00031D7728F20CF10CF00CF30A03197B28B2
:1000DC0077280130FC0003207E280230FC000A2027
:1000EC007E280430FC0016207E280830FC001A20E4
:0400FC0000000800F8
:100100007B14FB1F8B28F201FA1FFF30F200F10075
:0A011000F000FA0DF20CFF300800B9
:10011A00A0017208031DA2287108F2007008F100FC
:10012A00F001A0157208031DA2287108F200F1015E
:10013A00A011201672080319B0282008F302031D23
:10014A00031CB4280310F21BB828F00DF10DF20DB0
:10015A00F30BA828B4280130FC000320BB28023086
:0E016A00FC000A20BB280430FC001620080010
:1001780083120313FA017308031D7A147708031D09
:10018800FA147A0803190829033A0319D3287A18A4
:10019800D028F61F06290429F21F04290629720807
:1001A8008039FA00F21376088039F6137A060319B3
:1001B800E1287A0803190429062977087302031924
:1001C800E828031CFC280029760872020319EF2886
:1001D800031CFC280029750871020319F628031C62
:1001E800FC2800297408700203190829031800293B
:1001F800FA08031906290429FA0803190429062903
:10020800031408000310080003140315080008006D
:06021800FB15FF30080099
:10021E00831203137008F8007108F000F101F20167
:10022E00F301FB01FC019630F300FA017008F100B6
:0C023E007808F000F801F2018D200800A3
:10024A008312031372087606A000F801F9017308F5
:10025A007702031C48297708FD007308F7007D0818
:10026A00F3007608FD007208F6007D08F2007508B2
:10027A00FD007108F5007D08F1007408FD007008A2
:10028A00F4007D08F00077080319C1297208FA0002
:10029A00F217F61777087302F70003197B2908305B
:1002AA007702031C7129F7007408F9007508F40035
:1002BA007608F500F60108307702031C7129F70069
:1002CA007408F9007508F400F50108307702031C78
:1002DA0071297A08F200C129770803197B290310CA
:1002EA00F60CF50CF40CF90CF70B7429A01F8829ED
:1002FA00F909F409F509F609F90A0319F40A0319BF
:10030A00F50A0319F60A7908F80774080318740F2E
:10031A00F00775080318750FF10776080318760FAA
:10032A00F207A01BA129031CB129F20CF10CF00C55
:10033A00F80CF30FB129BD290318B529F809F009FA
:10034A00F109F209F80A0319F00A0319F10A031963
:10035A00F20A8030FA06B9290130FC002620C329A6
:10036A000230FC002620C3290430FC008D20C3295A
:10037A000830FC001A20C3290030FC0000000800E5
:10038A0083120313FB0173080319022A7208FA0085
:10039A00F2178E30F302F31F052AF309F30A083025
:1003AA007302031CE829F300F10D7208F100F2014F
:1003BA0008307302031CE829F300F10DF1017308F8
:1003CA00031D0310F02973080319F0290310F20C16
:1003DA00F10CF30BEB297B1B711CFA29031CFA297C
:1003EA00F10A0319F20AF21B112AFA1F142AF20956
:1003FA00F109F10A0319F20A142AF201F101142A85
:10040A007B14FB1F172AF201FA1F172AFF30F2008A
:10041A00F100FA0DF20C172A0130FC00192A0030FB
:10042A00FC00192AFF30FC00FC0803191D2A802051
:0A043A007108F0007208F1000800DC
:10044400831203137008F8007108F000F101F2013F
:10045400F301FB01FC019630F300FA01F01F382A86
:10046400F809F009F80A0319F00AFA177008F100FC
:0C0474007808F000F801F2018D2008006B
:1004800083120313FB017308031D77080319972ACE
:1004900072087606FA007708F3077E30031C542AA8
:1004A000F30203189A2A572AF302031C9D2A7208A2
:1004B000F8007108FC007008FD00F817F61703102B
:1004C000F201F101F0011830A0007D1C712A7408BE
:1004D000F00775080318750FF10776080318760FF3
:1004E000F207F20CF10CF00CF80CFC0CFD0C0310F4
:1004F000A00B652AF21B812AF80DF00DF10DF20D0B
:10050000F3037B1B701C932AF81F932AF00A03192C
:10051000F10A0319F20A031D932AF20CF10CF00CF4
:10052000F30A03199A2AFA1FF21300309F2A0130A6
:1005300003209F2A02301A209F2A04300A2000003C
:020540000800B1
:10054200831203132508F0002608F1002708F200A1
:100552002808F300C5217008B5007108B6002D08FF
:10056200F0002E08F1002F08F2003008F300C52138
:100572007008B7007108B800B901BA018101D4301E
:10058200831681008B018B160B1DCC2A8312B90AAC
:100592000319BA0A0B1183123908F0003A08F10064
:1005A2000F212D08F4002E08F5002F08F600300860
:1005B200F700BC20013003180030F0007008031966
:1005C200E42A0614E52A06103A083206031DEB2A2D
:0E05D20031083906031DEE2AEF2AC52A08005B
:0E05E0008312031334088A00330882000800D7
:1005EE00831203137408003A031D122B7508003A88
:1005FE00031D122B7608003A031D122B7708003AC2
:10060E00031D122BFF30F000FF30F1007F30F2009F
:10061E00FF30F300AD2B8312031377080319A12BC0
:10062E0073080319A42B720876068039FA00F217A4
:10063E00F617A0017208F8007108FC007008FD00A2
:10064E007408FD027508031C750FFC027608031C66
:10065E00760FF802F801FC01FD01031C3D2B03107F
:10066E00F20CF10CF00CF80C0130A0007708F3023C
:10067E00031C472B7E302007F3070318A72B4C2BA8
:10068E007E302007F307031CAA2B1830FA07FD0D46
:10069E00FC0DF80DF00DF10DF20DA00D7408F00229
:1006AE007508031C750FF1027608031C760FF20213
:1006BE00760DA004201C652B7D14702B7408F0079A
:1006CE0075080318750FF10776080318760AF207F6
:1006DE007D10FA031F307A05031D4E2B7B1B7D1CEC
:1006EE00972B0310F00DF10DF20DA00D7408F00212
:1006FE007508031C750FF1027608031C760FF202C3
:10070E00760D20040139FD070318FC0A0319F80AB7
:10071E00031D972BF80CFC0CFD0CF30A0319A72BE9
:10072E00FA1FF8137808F2007C08F1007D08F0003B
:10073E000030AC2B01300C21AC2B02300320AC2B43
:0E074E0004301A20AC2B08300A2000000800EE
:0C075C00831203138030F60625210800EC
:1007680083120313BB01BC01BD01BE013B08F400A9
:100778003C08F5003D08F6003E08F7000030F000A0
:100788000030F1007F30F2008630F300BC200130E9
:10079800031C0030F00070080319662C0030F400C8
:1007A8000030F5007F30F6008630F7003B08F00097
:1007B8003C08F1003D08F2003E08F300F7227008FB
:1007C800C3007108C4007208C5007308C600430856
:1007D800A1004408A2004508A3004608A400430855
:1007E800F4004408F5004508F6004608F700003014
:1007F800F0000030F1000030F2007F30F300AE234B
:100808007008A9007108AA007208AB007308AC0050
:100818003108F0003208F10022227008BF00710888
:10082800C0007208C1007308C2004308F000440801
:10083800F1004508F2004608F3003F08F4004008BC
:10084800F5004108F6004208F70040227008AD00A4
:100858007108AE007208AF007308B0002908F000F4
:100868002A08F1002B08F2002C08F3003F08F400D6
:100878004008F5004108F6004208F70040227008D9
:10088800A5007108A6007208A7007308A800A12295
:100898003B08F0003C08F1003D08F2003E08F30078
:1008A8000030F4000030F5000030F6008030F7002A
:1008B80025217008BB007108BC007208BD007308D0
:0608C800BE00BA2B08007F
:1008CE00F0228A110A128000840AB30A0319B40AAC
:0808DE00F003031D672C080064
:1008E60083120313A101A201A301A401A501A6017C
:1008F600A701A801A901AA01AB01AC01AD01AE0196
:10090600AF01B0012730B100B20183168601831210
:080916008601B4238C2C8E2C09
:02400E004A2F37
:00000001FF
