:02000000DD28F9
:10000600831203132A08F2002C08F0002D08F100D1
:10001600720803191328F00DF10D7010FF3E0C281D
:100026007008AC007108AD007008A0067108A10642
:020036000800C0
:0E0038008312031327088A002608820008009E
:1000460083120313A401A5018101D2308316810016
:100056008B018B160B1D34288312A40A0319A50ADB
:100066000B11831200302506031D3B280F30240692
:0A007600031D3E283F282D28080036
:1000800083120313A401A5018101D23083168100DC
:100090008B018B160B1D51288312A40A0319A50A84
:1000A0000B11831200302506031D58281730240633
:0A00B000031D5B285C284A280800A5
:1000BA0083120313A401A5018101D23083168100A2
:1000CA008B018B160B1D6E288312A40A0319A50A2D
:1000DA000B11831200302506031D752806302406ED
:0A00EA00031D782879286728080014
:1000F40083120313A801A90180302906F00080307F
:100104007002031D87280A30280203189A285D20EC
:100114000130A2000030A30006189628A201A30112
:100124006430A8000030A900A80A0319A90A7E288F
:1001340000302306031DA02801302206031DD02809
:100144000618CD284020A801A90180302906F00016
:1001540080307002031DB028083028020318CC2810
:10016400061CBF282808AA002908AB000130AC00EF
:100174000030AD0003208614C7282808AA002908E7
:10018400AB00AC01AD01032086102320A80A03199B
:0E019400A90AA728CE28A22820088700080064
:1001A2001C208A110A128000840AA60A0319A70ACF
:0801B200F003031DD128080031
:1001BA0083120313A001A10101308316860087016F
:1001CA008312870186018601061CEE28A001A1017F
:0601DA007A20E828EF285E
:02400E004A2F37
:00000001FF
