:02000000AD2C25
:10000600313083120313FD00FD0B072800000000AA
:020016000800E0
:10001800163083120313FC006C30FD00FD0B122810
:08002800FC0B12280000080087
:080030000000000000000800C0
:08003800FA1FF213003008006A
:100040007B15FB1F2A280130F300F201F101F001BA
:08005000FA0DF20CFF3008006C
:10005800FB14FB1F3628FF30F300F200F100F0001C
:08006800FA0DF20CFF30080054
:0E007000F201F101F001F801F3010030080087
:10007E0083120313CE1B45288611462886154E1B68
:10008E004A2806114B280615CE1A4F2886105028DE
:10009E0086144E1A54280610552806143B18592853
:1000AE0006165A280612861618208612CE196128B0
:1000BE008611622886154E196628061167280615C0
:1000CE00CE186B2886106C2886144E1870280610D1
:1000DE00712806143B187528061676280612861601
:1000EE00182086123B1C7D280C207E280320080039
:1000FE007C18B528FC1886287C19D4287F28A001E6
:10010E007208031DA6287108F2007008F100780825
:10011E00F000F801A0157208031DA6287108F20060
:10012E007008F100F001A01120167208031DA62818
:10013E007108F200F101A01572080319C8282008F1
:10014E00F302031D031CCC280310F21BB528F80D77
:10015E00F00DF10DF20DF30BAC28CC287B1B701CAF
:10016E00D028F81FD028F00A0319F10A0319F20A51
:10017E00031DD028F20CF10CF00CF30A0319D4284D
:10018E00D0280130FC003820D7280230FC00202077
:10019E00D7280430FC001C20D7280830FC002C2067
:0401AE000000080045
:1001B200A0017208031DEE287108F2007008F10018
:1001C200F001A0157208031DEE287108F200F1017A
:1001D200A011201672080319FC282008F302031D3F
:1001E200031C00290310F21B0429F00DF10DF20D7E
:1001F200F30BF42800290130FC00382007290230D3
:0E020200FC00202007290430FC001C2008000E
:10021000831203133B104D08CE003F203B1408000F
:100220007B14FB1F1B29F201FA1FFF30F200F100C3
:0A023000F000FA0DF20CFF30080098
:0E023A008312031341088A0040088200080066
:100248003629803083120313C9004929C030C900F8
:1002580049299430C9004929D430C9004929803036
:10026800C9004929831203134908013A03192529AA
:100278004908023A03192A294908033A03192D297A
:100288004908043A0319302933294A03F000490878
:10029800F0077008C9007008CE003F203B10CC0161
:1002A8004C084B0784000008031962294C084B07C7
:1002B80084000008CD000821CC0A54293B1408000A
:1002C800153083120313FD00FD0B682900000000A0
:0202D80008001C
:0602DA00FB15FF300800D7
:1002E0008312031372087606A000F801F90173085F
:1002F0007702031C93297708FD007308F7007D0837
:10030000F3007608FD007208F6007D08F20075081B
:10031000FD007108F5007D08F1007408FD0070080B
:10032000F4007D08F000770803190C2A7208FA001F
:10033000F217F61777087302F7000319C629083079
:100340007702031CBC29F7007408F9007508F40053
:100350007608F500F60108307702031CBC29F70087
:100360007408F9007508F400F50108307702031CE1
:10037000BC297A08F2000C2A77080319C629031051
:10038000F60CF50CF40CF90CF70BBF29A01FD329C0
:10039000F909F409F509F609F90A0319F40A031928
:1003A000F50A0319F60A7908F80774080318740F98
:1003B000F00775080318750FF10776080318760F14
:1003C000F207A01BEC29031CFC29F20CF10CF00C29
:1003D000F80CF30FFC29082A0318002AF809F00981
:1003E000F109F209F80A0319F00A0319F10A0319CD
:1003F000F20A8030FA06042A0130FC007F200E2A1F
:100400000230FC007F200E2A0430FC00D9200E2A86
:100410000830FC002C200E2A0030FC0000000800F0
:10042000831203137008F8007108F000F101F20163
:10043000F301FB01FC019630F300FA017008F100B2
:0C0440007808F000F801F201D920080053
:10044C0083120313FB0173080319632A7208FA0061
:10045C00F2178E30F302F31F662AF309F30A083001
:10046C007302031C492AF300F10D7208F100F2012A
:10047C0008307302031C492AF300F10DF1017308D3
:10048C00031D0310512A73080319512A0310F20C8F
:10049C00F10CF30B4C2A7B1B711C5B2A031C5B2A93
:1004AC00F10A0319F20AF21B722AFA1F752AF209D1
:1004BC00F109F10A0319F20A752AF201F101752A00
:1004CC007B14FB1F782AF201FA1F782AFF30F20006
:1004DC00F100FA0DF20C782A0130FC007A2A003077
:1004EC00FC007A2AFF30FC00FC0803197E2A10213C
:0A04FC007108F0007208F10008001A
:0C050600831203138030F60670210800F9
:1005120083120313FB017308031D77080319E02AF2
:1005220072087606FA007708F3077E30031C9D2ACC
:10053200F3020318E32AA02AF302031CE62A720834
:10054200F8007108FC007008FD00F817F617031098
:10055200F201F101F0011830A0007D1CBA2A7408E2
:10056200F00775080318750FF10776080318760F60
:10057200F207F20CF10CF00CF80CFC0CFD0C031061
:10058200A00BAE2AF21BCA2AF80DF00DF10DF20DE6
:10059200F3037B1B701CDC2AF81FDC2AF00A031908
:1005A200F10A0319F20A031DDC2AF20CF10CF00C19
:1005B200F30A0319E32AFA1FF2130030E82A013082
:1005C2003820E82A02302C20E82A043020200000BB
:0205D20008001F
:1005D400831203137408003A031D052B7508003AAF
:1005E400031D052B7608003A031D052B7708003AF6
:1005F400031D052BFF30F000FF30F1007F30F200C7
:10060400FF30F300A02B8312031377080319942BF4
:1006140073080319972B720876068039FA00F217CB
:10062400F617A0017208F8007108FC007008FD00BC
:100634007408FD027508031C750FFC027608031C80
:10064400760FF802F801FC01FD01031C302B0310A6
:10065400F20CF10CF00CF80C0130A0007708F30256
:10066400031C3A2B7E302007F30703189A2B3F2BE9
:100674007E302007F307031C9D2B1830FA07FD0D6D
:10068400FC0DF80DF00DF10DF20DA00D7408F00243
:100694007508031C750FF1027608031C760FF2022D
:1006A400760DA004201C582B7D14632B7408F007CE
:1006B40075080318750FF10776080318760AF20710
:1006C4007D10FA031F307A05031D412B7B1B7D1C13
:1006D4008A2B0310F00DF10DF20DA00D7408F00239
:1006E4007508031C750FF1027608031C760FF202DD
:1006F400760D20040139FD070318FC0A0319F80AD2
:10070400031D8A2BF80CFC0CFD0CF30A03199A2B1D
:10071400FA1FF8137808F2007C08F1007D08F00055
:1007240000309F2B01306D219F2B023038209F2BEE
:0E07340004302C209F2B0830202000000800ED
:10074200831203139F01C0309F0483161F179F1744
:1007520083124608F000F00D7010F00D7010F00DCD
:10076200701070089F041F1464211F151F1DBB2BDE
:100772000000B72B1F101E08F100F00183161E089F
:08078200F0040030F10408004E
:10078A00013083120313CE003F200C30CE003F20ED
:10079A000130C9000330CA002B30CB0024210800E5
:1007AA008316031386120612061086100611861186
:1007BA0083128612061286110611861006100C2064
:1007CA000C200C20861406148616182086120C207B
:1007DA008616182086120C208616182086120C20DF
:1007EA0006108616182086120C20861618208612E5
:1007FA00861086158616182086120C208611061475
:10080A0086161820861206108616182086120C20C4
:10081A0086161820861206148616182086120C20B0
:10082A0006108616182086128615061586140614D2
:0C083A008616182086120C203B140800C3
:100846001D218A110A128000840AC00A0319C10AEE
:08085600F003031D232C080030
:10085E00412C803083120313C600542CC030C600C6
:10086E00542C9430C600542CD430C600542C8030F6
:10087E00C600542C831203134608013A0319302C78
:10088E004608023A0319352C4608033A0319382C48
:10089E004608043A03193B2C3E2C4703F000460849
:1008AE00F0077008C6003B147008CE003F203B10C6
:0A08BE004808CE003F203B1408005C
:1008C80083120313FB01FA01F9018030F800F10CDF
:1008D800F00C031C782C7408F90775080318750FB9
:1008E800FA070318FB0A0310F01F802C7408FA0794
:1008F80075080318750FFB07FB0CFA0CF90CF80CBC
:10090800031C6B2C7B08F3007A08F2007908F100CD
:060918007808F000080061
:10091E00831203137008F8007108F000F101F20160
:10092E00F301FB01FC019630F300FA01F01FA52C38
:10093E00F809F009F80A0319F00AFA177008F1001D
:0C094E007808F000F801F201D920080040
:10095A00303083120313A1003130A2003230A300D9
:10096A003330A4003430A5003530A6003630A70055
:10097A003730A8003830A9003930AA005430AB000B
:10098A004530AC004D30AD005030AE004530AF00C0
:10099A005230B0004130B1005430B2005530B3008B
:1009AA005230B4004530B500B601051480308316C4
:1009BA009F00D523C523C601A12310227008C200B7
:1009CA007108C3007208C4007308C5000030F4003F
:1009DA000030F5002030F6008130F700892200301F
:1009EA00F400C030F5007F30F6008830F700EA22C4
:1009FA007008BC007108BD007208BE007308BF0011
:100A0A000030F4000030F5004830F6008530F70079
:100A1A0089227008BC007108BD007208BE00730804
:100A2A00BF000030F4000030F5002030F6008230BC
:100A3A00F700EA2226227008B9007108BA000A30C3
:100A4A00F4000030F50064248F247008F400710863
:100A5A00F5007208F6007308F7003C08F0003D083C
:100A6A00F1003E08F2003F08F300832226227008B4
:100A7A00B7007108B8000230C6000530C700303030
:100A8A00C8002F240230C6000630C7003908213EAC
:100A9A0084000008C8002F240230C6000730C700AF
:100AAA003708213E84000008C8002F240230C600FF
:100ABA000830C7002030C8002F240230C600093091
:100ACA00C7002230C8002F240230C6000A30C700EF
:0A0ADA004330C8002F24E02C712DDA
:02400E004A2F37
:00000001FF
