:02000000D32B00
:08000600FA1FF213003008009C
:10000E00FB14FB1F1128FF30F300F200F100F0008B
:08001E00FA0DF20CFF3008009E
:100026007B15FB1F1D280130F300F201F101F001E1
:08003600FA0DF20CFF30080086
:0E003E00F201F101F001F801F30100300800B9
:10004C00A0017208031D3B287108F2007008F10032
:10005C00F001A0157208031D3B287108F200F10194
:10006C00A01120167208031949282008F302031D59
:10007C00031C4D280310F21B5128F00DF10DF20D4D
:10008C00F30B41284D280130FC001F20542802306E
:0E009C00FC00132054280430FC000320080050
:1000AA007C188B28FC185C287C19AA285528A001E2
:1000BA007208031D7C287108F2007008F1007808A4
:1000CA00F000F801A0157208031D7C287108F200DF
:1000DA007008F100F001A01120167208031D7C2897
:1000EA007108F200F101A015720803199E28200870
:1000FA00F302031D031CA2280310F21B8B28F80D20
:10010A00F00DF10DF20DF30B8228A2287B1B701C57
:10011A00A628F81FA628F00A0319F10A0319F20AF9
:10012A00031DA628F20CF10CF00CF30A0319AA28F5
:10013A00A6280130FC001F20AD280230FC00132045
:10014A00AD280430FC000320AD280830FC0007204D
:04015A000000080099
:10015E008312031372087606A000F801F9017308E2
:10016E007702031CD2287708FD007308F7007D087C
:10017E00F3007608FD007208F6007D08F20075089F
:10018E00FD007108F5007D08F1007408FD0070088F
:10019E00F4007D08F000770803194B297208FA0065
:1001AE00F217F61777087302F700031905290830BE
:1001BE007702031CFB28F7007408F9007508F40099
:1001CE007608F500F60108307702031CFB28F700CD
:1001DE007408F9007508F400F50108307702031C65
:1001EE00FB287A08F2004B2977080319052903101A
:1001FE00F60CF50CF40CF90CF70BFE28A01F1229C7
:10020E00F909F409F509F609F90A0319F40A0319AB
:10021E00F50A0319F60A7908F80774080318740F1B
:10022E00F00775080318750FF10776080318760F97
:10023E00F207A01B2B29031C3B29F20CF10CF00C2E
:10024E00F80CF30F3B29472903183F29F809F00949
:10025E00F109F209F80A0319F00A0319F10A031950
:10026E00F20A8030FA0643290130FC0055204D2950
:10027E000230FC0055204D290430FC0026204D296B
:10028E000830FC0007204D290030FC00000008005B
:10029E00153083120313FD00FD0B532900000000DF
:0202AE00080046
:0E02B0008312031336088A0035088200080006
:1002BE007B14FB1F6A29F201FA1FFF30F200F100D6
:0A02CE00F000FA0DF20CFF300800FA
:0602D800FB15FF300800D9
:1002DE00831203137008F8007108F000F101F201A7
:1002EE00F301FB01FC019630F300FA01F01F8529A2
:1002FE00F809F009F80A0319F00AFA177008F10064
:0C030E007808F000F801F2012620080039
:10031A0083120313FB017308031D77080319E429E9
:10032A0072087606FA007708F3077E30031CA129C3
:10033A00F3020318E729A429F302031CEA29720825
:10034A00F8007108FC007008FD00F817F617031092
:10035A00F201F101F0011830A0007D1CBE297408D9
:10036A00F00775080318750FF10776080318760F5A
:10037A00F207F20CF10CF00CF80CFC0CFD0C03105B
:10038A00A00BB229F21BCE29F80DF00DF10DF20DDA
:10039A00F3037B1B701CE029F81FE029F00A0319FC
:1003AA00F10A0319F20A031DE029F20CF10CF00C10
:1003BA00F30A0319E729FA1FF2130030EC29013076
:1003CA001F20EC2902300720EC29043013200000FA
:0203DA00080019
:1003DC0083120313FB01730803192B2A7208FA000A
:1003EC00F2178E30F302F31F2E2AF309F30A0830AA
:1003FC007302031C112AF300F10D7208F100F201D3
:10040C0008307302031C112AF300F10DF10173087B
:10041C00031D0310192A73080319192A0310F20C6F
:10042C00F10CF30B142A7B1B711C232A031C232AAB
:10043C00F10A0319F20AF21B3A2AFA1F3D2AF209B1
:10044C00F109F10A0319F20A3D2AF201F1013D2AE0
:10045C007B14FB1F402AF201FA1F402AFF30F200E6
:10046C00F100FA0DF20C402A0130FC00422A003057
:10047C00FC00422AFF30FC00FC080319462A5F21CD
:0A048C007108F0007208F10008008A
:10049600831203137408003A031D662A7508003A8E
:1004A600031D662A7608003A031D662A7708003A75
:1004B600031D662AFF30F000FF30F1007F30F200A6
:1004C600FF30F300012B8312031377080319F52A73
:1004D60073080319F82A720876068039FA00F217AB
:1004E600F617A0017208F8007108FC007008FD00FC
:1004F6007408FD027508031C750FFC027608031CC0
:10050600760FF802F801FC01FD01031C912A031085
:10051600F20CF10CF00CF80C0130A0007708F30295
:10052600031C9B2A7E302007F3070318FB2AA02A08
:100536007E302007F307031CFE2A1830FA07FD0D4C
:10054600FC0DF80DF00DF10DF20DA00D7408F00282
:100556007508031C750FF1027608031C760FF2026C
:10056600760DA004201CB92A7D14C42A7408F0074D
:1005760075080318750FF10776080318760AF2074F
:100586007D10FA031F307A05031DA22A7B1B7D1CF2
:10059600EB2A0310F00DF10DF20DA00D7408F00218
:1005A6007508031C750FF1027608031C760FF2021C
:1005B600760D20040139FD070318FC0A0319F80A11
:1005C600031DEB2AF80CFC0CFD0CF30A0319FB2A9D
:1005D600FA1FF8137808F2007C08F1007D08F00095
:1005E6000030002B01306C21002B02301F20002B25
:0E05F60004300720002B0830132000000800FE
:1006040083120313FB01FA01F9018030F800F10CA5
:10061400F00C031C162B7408F90775080318750FE2
:10062400FA070318FB0A0310F01F1E2B7408FA07BD
:1006340075080318750FFB07FB0CFA0CF90CF80C82
:10064400031C092B7B08F3007A08F2007908F100F7
:060654007808F000080028
:10065A00831203137008F8007108F000F101F20127
:10066A00F301FB01FC019630F300FA017008F10076
:0C067A007808F000F801F20126200800CA
:10068600831203139F01C0309F0483161F179F1701
:1006960083124E08F000F00D7010F00D7010F00D82
:1006A600701070089F041F144F211F151F1D5D2B0E
:1006B6000000592B1F101E08F100F00183161E08BA
:0806C600F0040030F10408000B
:0C06CE00831203138030F606AF200800F2
:1006DA0058218A110A128000840AB50A0319B60A37
:0806EA00F003031D6D2B080055
:1006F200FF3083120313B700FF30B800FF30B90098
:10070200FF309F01C0309F0483161F179F1783126B
:040712001F140800A8
:1007160083120313F101F20180307206F00080307B
:100726007002031D982BFA3071020318D22B3A0877
:10073600860088150430FC00E430FD00FD0BA12B7B
:10074600FC0BA12B00008811480886000814043011
:10075600FC00E430FD00FD0BAE2BFC0BAE2B0000C5
:1007660008104A08860087140430FC00E430FD00B7
:10077600FD0BBB2BFC0BBB2B00008710460886002D
:1007860008150430FC00E430FD00FD0BC82BFC0B03
:10079600C82B00000811F10A0319F20A8F2B080072
:1007A600C03083120313A100A201F930A300A401F3
:1007B600A430A500A601B030A700A8019930A90071
:1007C600AA019230AB00AC018230AD00AE01F83028
:1007D600AF00B0018030B100B2019030B300B40177
:1007E6008316860180309F00870188018312870166
:1007F60088012108C6002208C7002108CA0022086D
:10080600CB002108BA002208BB00C630C800C901C7
:100816008B2379230130CE0043232D237008C20099
:100826007108C3007208C4007308C5000030F400E4
:100836000030F5002030F6008130F7008D210030C1
:10084600F400C030F5007F30F6008830F7004B2208
:100856007008BE007108BF007208C0007308C100AE
:100866000030F4000030F5004830F6008530F7001F
:100876008D217008BE007108BF007208C0007308A1
:10088600C100EE218030F200803071067202031D35
:100896004E2C70082B3C0318522C0812532C0816A9
:1008A6000030F4000030F5002030F6008230F7000A
:1008B6003E08F0003F08F1004008F2004108F3004E
:1008C6004B22EE217008CC007108CD000A30F400EE
:1008D6000030F50002236F217008F4007108F5005E
:1008E6007208F6007308F7003E08F0003F08F100B2
:1008F6004008F2004108F3006723EE217008BC00AF
:100906007108BD004C08F2004D08F300F20DF30D1E
:1009160072107208213E84000008C600840A00088E
:10092600C7007008F2007108F300F20DF30D7210A3
:100936007208213E84000008CA00840A0008CB0021
:060946008B230D2CA52CF3
:02400E004A2F37
:00000001FF
