:02000000FE28D8
:1000060083120313A001A1018101D230831681005E
:100016008B018B160B1D14288312A00A0319A10A43
:100026000B11831200302106031D1B280F302006FA
:0A003600031D1E281F280D280800D6
:10004000013083120313A2000030A3002C08F20039
:100050002208F0002308F100720803193428F00D7B
:10006000F10D7010FF3E2D287008A2007108A3004A
:0A0070002A08F0052B08F10508002E
:0E007A008312031325088A0024088200080060
:1000880083120313AA01AB0180302B06F0008030E5
:100098007002031D512814302A0203185B28071424
:1000A800032007100320AA0A0319AB0A48280800EE
:1000B80083120313A001A1018101D23083168100AC
:1000C8008B018B160B110B1D6E288312A00A0319C6
:1000D800A10A0B11831200302106031D75285D301B
:0C00E8002006031D7828792867280800EE
:1000F40083120313A801A901F301F40180307406EB
:10010400F00080307002031D892804307302031844
:10011400B62808302605F1002708F2000030F20561
:1001240000307206031D982808307106031DA528A7
:100134000230A8060030A906A80DA90D2810A80DA4
:10014400A90D2810AF280130A8060030A906A80D73
:10015400A90D2810A80DA90D2810A60DA70D26106D
:10016400F30A0319F40A80282808F0002908F1008A
:10017400F10CF00CF113711BF117F10CF00CF113ED
:06018400711BF1170800D9
:10018A00442007145C2007100320A801A90180302D
:10019A002906F00080307002031DD5280830280295
:1001AA000318F0282608AA002708AB002808AC0084
:1001BA002908AD00202000307106031DE628003012
:1001CA0070060319EA280714EB2807100320A80A67
:0A01DA000319A90ACC280710080039
:1001E4003D208A110A128000840AA40A0319A50A70
:0801F400F003031DF2280800CE
:1001FC00FF30831603138600870183128701061CC8
:10020C000F29A601A7017A207008A6007108A70083
:10021C00C520861C1B290130A6000030A7007A20BF
:10022C007008A6007108A700C520061D27290230FA
:10023C00A6000030A7007A207008A6007108A7005D
:10024C00C520861D33290330A6000030A7007A2074
:10025C007008A6007108A700C520061E3F290430AF
:10026C00A6000030A7007A207008A6007108A7002D
:10027C00C520861E4B290530A6000030A7007A2029
:10028C007008A6007108A700C520061F5729063064
:10029C00A6000030A7007A207008A6007108A700FD
:1002AC00C520861F63290730A6000030A7007A20DE
:0E02BC007008A6007108A700C5200529642956
:02400E004A2F37
:00000001FF
