:020000002729AE
:10000600313083120313FD00FD0B072800000000AA
:020016000800E0
:10001800163083120313FC006C30FD00FD0B122810
:08002800FC0B12280000080087
:080030000000000000000800C0
:1000380083160313EC1B23288312861125288312A9
:10004800861583166C1B2B28831206112D28831204
:1000580006158316EC1A3328831286103528831266
:10006800861483166C1A3B28831206103D288312C7
:100078000614831666184328831206164528831229
:1000880006128616182086128316EC194E2883123B
:10009800861150288312861583166C1956288312E8
:1000A80006115828831206158316EC185E28831249
:1000B800861060288312861483166C1866288312AB
:1000C8000610682883120614831666186E28831291
:1000D80006167028831206128616182086128316B2
:0C00E800661C78280C20792803200800F2
:0E00F4008316031365088A0064088200080062
:100102008316031366106B08EC001C20831666141A
:020112000800E3
:100114009C28803083160313E700AF28C030E70023
:10012400AF289430E700AF28D430E700AF28803000
:10013400E700AF28831603136708013A03198B28D5
:100144006708023A031990286708033A03199328A9
:100154006708043A0319962899286803F000670889
:10016400F0077008E7007008EC001C208316661086
:10017400EA016A086907840000080319C9286A08A3
:10018400690784000008EB008120EA0ABB28661492
:02019400080061
:0201960008005F
:100198007A208A110A128000840AE40A0319E50AFF
:0801A800F003031DCC28080040
:1001B0008316031386120612061086100611861186
:1001C00083128612061286110611861006100C2064
:1001D0000C200C20861406148616182086120C207B
:1001E0008616182086120C208616182086120C20DF
:1001F00006108616182086120C20861618208612E5
:10020000861086158616182086120C208611061474
:1002100086161820861206108616182086120C20C4
:1002200086161820861206148616182086120C20B0
:1002300006108616182086128615061586140614D2
:0E0240008616182086120C20831666140800FD
:10024E008622D8200C30EC001C20073083169C0030
:10025E0085010F308700880183128801870185018F
:10026E00CB2001308316E7000230E8006130E90050
:10027E008A200230E7000230E800D430E9008A20FC
:10028E001F30FB007130FC001E30FD00FD0B4D29B0
:10029E00FC0B4D29FB0B4D2900000130EC001C20FE
:1002AE0001308316E7000130E8005230E9008A2061
:1002BE000230E7000130E8004330E9008A201F30A9
:1002CE00FB007130FC001E30FD00FD0B6C29FC0B99
:1002DE006C29FB0B6C290000831207080F3A031DD3
:1002EE008C29CB200130850001308316E7000230C7
:1002FE00E8006130E9008A200230E7000130E800B2
:10030E00A030E9008A208312081107080E3A031D57
:10031E00A229CB200230850001308316E70002307F
:10032E00E8006130E9008A200230E7000130E80081
:10033E00C330E9008A20831207080C3A031DB9293D
:10034E00CB200430850001308316E7000230E80030
:10035E006130E9008A200230E7000130E800B23057
:10036E00E9008A2083120708083A031DD229CB2000
:10037E000830850001308316E7000230E800613056
:10038E00E9008A200230E7000130E8002030E90061
:10039E008A20831208150708003A031DEA29CB208C
:1003AE000830850001308316E7000230E800613026
:1003BE00E9008A200230E7000130E8003230E9001F
:0A03CE008A20831208157329EB2919
:10050C0020308400413083120313F0003530831601
:10051C00E4000230E500CC20A03084004430F00030
:10052C00F1308316E4000130E500CC20613084000A
:10053C000F30F00076308316E4000230E500CC205A
:02054C000800A5
:1003E200203420342034203420344934533420340F
:1003F2003134303430342534203420342034203425
:04040200203400346E
:1004060020342034203420342034493453342034EA
:10041600353430342534203420342034203420340C
:020426000034A0
:1004280020342034203420342034493453342034C8
:1004380037343534253420342034203420342034E3
:0204480000347E
:10044A002034203443344F344E34543452344F34ED
:10045A004C344C3445345234203420342034003463
:10046A002034203420342034203449345334203486
:10047A0032343534253420342034203420342034A6
:04048A0020340034E6
:10048E0020342034493453342034423445344C34EF
:10049E004F3457342034323435342534203420341C
:0204AE00003418
:1004B0002034203445344E345934493420344134C6
:0E04C0004E34543448344F344E3459340034E2
:1004CE0020342034443445345334493447344E3484
:0E04DE00453444342034423459342034003440
:1004EC00203420345734413454344534523420347D
:0E04FC004C344534563445344C3420340034EE
:02400E004A2F37
:00000001FF
